{
    "_format": "hh-sol-artifact-1",
    "contractName": "VecFT",
    "sourceName": "contracts/VecFT.sol",
    "abi": [
        {
            "inputs": [],
            "stateMutability": "nonpayable",
            "type": "constructor"
        },
        {
            "inputs": [
                {
                    "internalType": "address",
                    "name": "sender",
                    "type": "address"
                },
                {
                    "internalType": "uint256",
                    "name": "tokenId",
                    "type": "uint256"
                },
                {
                    "internalType": "address",
                    "name": "owner",
                    "type": "address"
                }
            ],
            "name": "ERC721IncorrectOwner",
            "type": "error"
        },
        {
            "inputs": [
                {
                    "internalType": "address",
                    "name": "operator",
                    "type": "address"
                },
                {
                    "internalType": "uint256",
                    "name": "tokenId",
                    "type": "uint256"
                }
            ],
            "name": "ERC721InsufficientApproval",
            "type": "error"
        },
        {
            "inputs": [
                {
                    "internalType": "address",
                    "name": "approver",
                    "type": "address"
                }
            ],
            "name": "ERC721InvalidApprover",
            "type": "error"
        },
        {
            "inputs": [
                {
                    "internalType": "address",
                    "name": "operator",
                    "type": "address"
                }
            ],
            "name": "ERC721InvalidOperator",
            "type": "error"
        },
        {
            "inputs": [
                {
                    "internalType": "address",
                    "name": "owner",
                    "type": "address"
                }
            ],
            "name": "ERC721InvalidOwner",
            "type": "error"
        },
        {
            "inputs": [
                {
                    "internalType": "address",
                    "name": "receiver",
                    "type": "address"
                }
            ],
            "name": "ERC721InvalidReceiver",
            "type": "error"
        },
        {
            "inputs": [
                {
                    "internalType": "address",
                    "name": "sender",
                    "type": "address"
                }
            ],
            "name": "ERC721InvalidSender",
            "type": "error"
        },
        {
            "inputs": [
                {
                    "internalType": "uint256",
                    "name": "tokenId",
                    "type": "uint256"
                }
            ],
            "name": "ERC721NonexistentToken",
            "type": "error"
        },
        {
            "anonymous": false,
            "inputs": [
                {
                    "indexed": true,
                    "internalType": "address",
                    "name": "owner",
                    "type": "address"
                },
                {
                    "indexed": true,
                    "internalType": "address",
                    "name": "approved",
                    "type": "address"
                },
                {
                    "indexed": true,
                    "internalType": "uint256",
                    "name": "tokenId",
                    "type": "uint256"
                }
            ],
            "name": "Approval",
            "type": "event"
        },
        {
            "anonymous": false,
            "inputs": [
                {
                    "indexed": true,
                    "internalType": "address",
                    "name": "owner",
                    "type": "address"
                },
                {
                    "indexed": true,
                    "internalType": "address",
                    "name": "operator",
                    "type": "address"
                },
                {
                    "indexed": false,
                    "internalType": "bool",
                    "name": "approved",
                    "type": "bool"
                }
            ],
            "name": "ApprovalForAll",
            "type": "event"
        },
        {
            "anonymous": false,
            "inputs": [
                {
                    "indexed": false,
                    "internalType": "uint256",
                    "name": "_fromTokenId",
                    "type": "uint256"
                },
                {
                    "indexed": false,
                    "internalType": "uint256",
                    "name": "_toTokenId",
                    "type": "uint256"
                }
            ],
            "name": "BatchMetadataUpdate",
            "type": "event"
        },
        {
            "anonymous": false,
            "inputs": [
                {
                    "indexed": false,
                    "internalType": "uint256",
                    "name": "_tokenId",
                    "type": "uint256"
                }
            ],
            "name": "MetadataUpdate",
            "type": "event"
        },
        {
            "anonymous": false,
            "inputs": [
                {
                    "indexed": true,
                    "internalType": "address",
                    "name": "from",
                    "type": "address"
                },
                {
                    "indexed": true,
                    "internalType": "address",
                    "name": "to",
                    "type": "address"
                },
                {
                    "indexed": true,
                    "internalType": "uint256",
                    "name": "tokenId",
                    "type": "uint256"
                }
            ],
            "name": "Transfer",
            "type": "event"
        },
        {
            "inputs": [
                {
                    "internalType": "address",
                    "name": "to",
                    "type": "address"
                },
                {
                    "internalType": "uint256",
                    "name": "tokenId",
                    "type": "uint256"
                }
            ],
            "name": "approve",
            "outputs": [],
            "stateMutability": "nonpayable",
            "type": "function"
        },
        {
            "inputs": [
                {
                    "internalType": "address",
                    "name": "owner",
                    "type": "address"
                }
            ],
            "name": "balanceOf",
            "outputs": [
                {
                    "internalType": "uint256",
                    "name": "",
                    "type": "uint256"
                }
            ],
            "stateMutability": "view",
            "type": "function"
        },
        {
            "inputs": [
                {
                    "internalType": "uint256",
                    "name": "tokenId",
                    "type": "uint256"
                }
            ],
            "name": "getApproved",
            "outputs": [
                {
                    "internalType": "address",
                    "name": "",
                    "type": "address"
                }
            ],
            "stateMutability": "view",
            "type": "function"
        },
        {
            "inputs": [
                {
                    "internalType": "address",
                    "name": "owner",
                    "type": "address"
                },
                {
                    "internalType": "address",
                    "name": "operator",
                    "type": "address"
                }
            ],
            "name": "isApprovedForAll",
            "outputs": [
                {
                    "internalType": "bool",
                    "name": "",
                    "type": "bool"
                }
            ],
            "stateMutability": "view",
            "type": "function"
        },
        {
            "inputs": [],
            "name": "name",
            "outputs": [
                {
                    "internalType": "string",
                    "name": "",
                    "type": "string"
                }
            ],
            "stateMutability": "view",
            "type": "function"
        },
        {
            "inputs": [
                {
                    "internalType": "uint256",
                    "name": "tokenId",
                    "type": "uint256"
                }
            ],
            "name": "ownerOf",
            "outputs": [
                {
                    "internalType": "address",
                    "name": "",
                    "type": "address"
                }
            ],
            "stateMutability": "view",
            "type": "function"
        },
        {
            "inputs": [
                {
                    "internalType": "address",
                    "name": "to",
                    "type": "address"
                },
                {
                    "internalType": "string",
                    "name": "uri",
                    "type": "string"
                }
            ],
            "name": "safeMint",
            "outputs": [
                {
                    "internalType": "uint256",
                    "name": "",
                    "type": "uint256"
                }
            ],
            "stateMutability": "nonpayable",
            "type": "function"
        },
        {
            "inputs": [
                {
                    "internalType": "address",
                    "name": "from",
                    "type": "address"
                },
                {
                    "internalType": "address",
                    "name": "to",
                    "type": "address"
                },
                {
                    "internalType": "uint256",
                    "name": "tokenId",
                    "type": "uint256"
                }
            ],
            "name": "safeTransferFrom",
            "outputs": [],
            "stateMutability": "nonpayable",
            "type": "function"
        },
        {
            "inputs": [
                {
                    "internalType": "address",
                    "name": "from",
                    "type": "address"
                },
                {
                    "internalType": "address",
                    "name": "to",
                    "type": "address"
                },
                {
                    "internalType": "uint256",
                    "name": "tokenId",
                    "type": "uint256"
                },
                {
                    "internalType": "bytes",
                    "name": "data",
                    "type": "bytes"
                }
            ],
            "name": "safeTransferFrom",
            "outputs": [],
            "stateMutability": "nonpayable",
            "type": "function"
        },
        {
            "inputs": [
                {
                    "internalType": "address",
                    "name": "operator",
                    "type": "address"
                },
                {
                    "internalType": "bool",
                    "name": "approved",
                    "type": "bool"
                }
            ],
            "name": "setApprovalForAll",
            "outputs": [],
            "stateMutability": "nonpayable",
            "type": "function"
        },
        {
            "inputs": [
                {
                    "internalType": "bytes4",
                    "name": "interfaceId",
                    "type": "bytes4"
                }
            ],
            "name": "supportsInterface",
            "outputs": [
                {
                    "internalType": "bool",
                    "name": "",
                    "type": "bool"
                }
            ],
            "stateMutability": "view",
            "type": "function"
        },
        {
            "inputs": [],
            "name": "symbol",
            "outputs": [
                {
                    "internalType": "string",
                    "name": "",
                    "type": "string"
                }
            ],
            "stateMutability": "view",
            "type": "function"
        },
        {
            "inputs": [
                {
                    "internalType": "uint256",
                    "name": "tokenId",
                    "type": "uint256"
                }
            ],
            "name": "tokenURI",
            "outputs": [
                {
                    "internalType": "string",
                    "name": "",
                    "type": "string"
                }
            ],
            "stateMutability": "view",
            "type": "function"
        },
        {
            "inputs": [
                {
                    "internalType": "address",
                    "name": "from",
                    "type": "address"
                },
                {
                    "internalType": "address",
                    "name": "to",
                    "type": "address"
                },
                {
                    "internalType": "uint256",
                    "name": "tokenId",
                    "type": "uint256"
                }
            ],
            "name": "transferFrom",
            "outputs": [],
            "stateMutability": "nonpayable",
            "type": "function"
        },
        {
            "inputs": [
                {
                    "internalType": "address",
                    "name": "from",
                    "type": "address"
                },
                {
                    "internalType": "address",
                    "name": "to",
                    "type": "address"
                },
                {
                    "internalType": "uint256",
                    "name": "tokenId",
                    "type": "uint256"
                }
            ],
            "name": "transferNFT",
            "outputs": [],
            "stateMutability": "nonpayable",
            "type": "function"
        }
    ],
    "bytecode": "0x60806040523480156200001157600080fd5b506040518060400160405280600581526020017f56656346540000000000000000000000000000000000000000000000000000008152506040518060400160405280600381526020017f564654000000000000000000000000000000000000000000000000000000000081525081600090816200008f91906200032c565b508060019081620000a191906200032c565b505050600060078190555062000413565b600081519050919050565b7f4e487b7100000000000000000000000000000000000000000000000000000000600052604160045260246000fd5b7f4e487b7100000000000000000000000000000000000000000000000000000000600052602260045260246000fd5b600060028204905060018216806200013457607f821691505b6020821081036200014a5762000149620000ec565b5b50919050565b60008190508160005260206000209050919050565b60006020601f8301049050919050565b600082821b905092915050565b600060088302620001b47fffffffffffffffffffffffffffffffffffffffffffffffffffffffffffffffff8262000175565b620001c0868362000175565b95508019841693508086168417925050509392505050565b6000819050919050565b6000819050919050565b60006200020d620002076200020184620001d8565b620001e2565b620001d8565b9050919050565b6000819050919050565b6200022983620001ec565b62000241620002388262000214565b84845462000182565b825550505050565b600090565b6200025862000249565b620002658184846200021e565b505050565b5b818110156200028d57620002816000826200024e565b6001810190506200026b565b5050565b601f821115620002dc57620002a68162000150565b620002b18462000165565b81016020851015620002c1578190505b620002d9620002d08562000165565b8301826200026a565b50505b505050565b600082821c905092915050565b60006200030160001984600802620002e1565b1980831691505092915050565b60006200031c8383620002ee565b9150826002028217905092915050565b6200033782620000b2565b67ffffffffffffffff811115620003535762000352620000bd565b5b6200035f82546200011b565b6200036c82828562000291565b600060209050601f831160018114620003a457600084156200038f578287015190505b6200039b85826200030e565b8655506200040b565b601f198416620003b48662000150565b60005b82811015620003de57848901518255600182019150602085019450602081019050620003b7565b86831015620003fe5784890151620003fa601f891682620002ee565b8355505b6001600288020188555050505b505050505050565b61242c80620004236000396000f3fe608060405234801561001057600080fd5b50600436106100f55760003560e01c806369e9cae111610097578063b88d4fde11610066578063b88d4fde14610282578063c87b56dd1461029e578063d204c45e146102ce578063e985e9c5146102fe576100f5565b806369e9cae1146101fc57806370a082311461021857806395d89b4114610248578063a22cb46514610266576100f5565b8063095ea7b3116100d3578063095ea7b31461017857806323b872dd1461019457806342842e0e146101b05780636352211e146101cc576100f5565b806301ffc9a7146100fa57806306fdde031461012a578063081812fc14610148575b600080fd5b610114600480360381019061010f9190611884565b61032e565b60405161012191906118cc565b60405180910390f35b61013261038f565b60405161013f9190611977565b60405180910390f35b610162600480360381019061015d91906119cf565b610421565b60405161016f9190611a3d565b60405180910390f35b610192600480360381019061018d9190611a84565b61043d565b005b6101ae60048036038101906101a99190611ac4565b610453565b005b6101ca60048036038101906101c59190611ac4565b610555565b005b6101e660048036038101906101e191906119cf565b610575565b6040516101f39190611a3d565b60405180910390f35b61021660048036038101906102119190611ac4565b610587565b005b610232600480360381019061022d9190611b17565b610597565b60405161023f9190611b53565b60405180910390f35b610250610651565b60405161025d9190611977565b60405180910390f35b610280600480360381019061027b9190611b9a565b6106e3565b005b61029c60048036038101906102979190611d0f565b6106f9565b005b6102b860048036038101906102b391906119cf565b610716565b6040516102c59190611977565b60405180910390f35b6102e860048036038101906102e39190611e33565b610829565b6040516102f59190611b53565b60405180910390f35b61031860048036038101906103139190611e8f565b610862565b60405161032591906118cc565b60405180910390f35b6000634906490660e01b7bffffffffffffffffffffffffffffffffffffffffffffffffffffffff1916827bffffffffffffffffffffffffffffffffffffffffffffffffffffffff191614806103885750610387826108f6565b5b9050919050565b60606000805461039e90611efe565b80601f01602080910402602001604051908101604052809291908181526020018280546103ca90611efe565b80156104175780601f106103ec57610100808354040283529160200191610417565b820191906000526020600020905b8154815290600101906020018083116103fa57829003601f168201915b5050505050905090565b600061042c826109d8565b5061043682610a60565b9050919050565b61044f828261044a610a9d565b610aa5565b5050565b600073ffffffffffffffffffffffffffffffffffffffff168273ffffffffffffffffffffffffffffffffffffffff16036104c55760006040517f64a0ae920000000000000000000000000000000000000000000000000000000081526004016104bc9190611a3d565b60405180910390fd5b60006104d983836104d4610a9d565b610ab7565b90508373ffffffffffffffffffffffffffffffffffffffff168173ffffffffffffffffffffffffffffffffffffffff161461054f578382826040517f64283d7b00000000000000000000000000000000000000000000000000000000815260040161054693929190611f2f565b60405180910390fd5b50505050565b610570838383604051806020016040528060008152506106f9565b505050565b6000610580826109d8565b9050919050565b610592838383610555565b505050565b60008073ffffffffffffffffffffffffffffffffffffffff168273ffffffffffffffffffffffffffffffffffffffff160361060a5760006040517f89c62b640000000000000000000000000000000000000000000000000000000081526004016106019190611a3d565b60405180910390fd5b600360008373ffffffffffffffffffffffffffffffffffffffff1673ffffffffffffffffffffffffffffffffffffffff168152602001908152602001600020549050919050565b60606001805461066090611efe565b80601f016020809104026020016040519081016040528092919081815260200182805461068c90611efe565b80156106d95780601f106106ae576101008083540402835291602001916106d9565b820191906000526020600020905b8154815290600101906020018083116106bc57829003601f168201915b5050505050905090565b6106f56106ee610a9d565b8383610cd1565b5050565b610704848484610453565b61071084848484610e40565b50505050565b6060610721826109d8565b50600060066000848152602001908152602001600020805461074290611efe565b80601f016020809104026020016040519081016040528092919081815260200182805461076e90611efe565b80156107bb5780601f10610790576101008083540402835291602001916107bb565b820191906000526020600020905b81548152906001019060200180831161079e57829003601f168201915b5050505050905060006107cc610ff7565b905060008151036107e1578192505050610824565b6000825111156108165780826040516020016107fe929190611fa2565b60405160208183030381529060405292505050610824565b61081f8461100e565b925050505b919050565b600061083783600754611077565b61084360075483611095565b6007600081548092919061085690611ff5565b91905055905092915050565b6000600560008473ffffffffffffffffffffffffffffffffffffffff1673ffffffffffffffffffffffffffffffffffffffff16815260200190815260200160002060008373ffffffffffffffffffffffffffffffffffffffff1673ffffffffffffffffffffffffffffffffffffffff16815260200190815260200160002060009054906101000a900460ff16905092915050565b60007f80ac58cd000000000000000000000000000000000000000000000000000000007bffffffffffffffffffffffffffffffffffffffffffffffffffffffff1916827bffffffffffffffffffffffffffffffffffffffffffffffffffffffff191614806109c157507f5b5e139f000000000000000000000000000000000000000000000000000000007bffffffffffffffffffffffffffffffffffffffffffffffffffffffff1916827bffffffffffffffffffffffffffffffffffffffffffffffffffffffff1916145b806109d157506109d0826110f1565b5b9050919050565b6000806109e48361115b565b9050600073ffffffffffffffffffffffffffffffffffffffff168173ffffffffffffffffffffffffffffffffffffffff1603610a5757826040517f7e273289000000000000000000000000000000000000000000000000000000008152600401610a4e9190611b53565b60405180910390fd5b80915050919050565b60006004600083815260200190815260200160002060009054906101000a900473ffffffffffffffffffffffffffffffffffffffff169050919050565b600033905090565b610ab28383836001611198565b505050565b600080610ac38461115b565b9050600073ffffffffffffffffffffffffffffffffffffffff168373ffffffffffffffffffffffffffffffffffffffff1614610b0557610b0481848661135d565b5b600073ffffffffffffffffffffffffffffffffffffffff168173ffffffffffffffffffffffffffffffffffffffff1614610b9657610b47600085600080611198565b6001600360008373ffffffffffffffffffffffffffffffffffffffff1673ffffffffffffffffffffffffffffffffffffffff168152602001908152602001600020600082825403925050819055505b600073ffffffffffffffffffffffffffffffffffffffff168573ffffffffffffffffffffffffffffffffffffffff1614610c19576001600360008773ffffffffffffffffffffffffffffffffffffffff1673ffffffffffffffffffffffffffffffffffffffff168152602001908152602001600020600082825401925050819055505b846002600086815260200190815260200160002060006101000a81548173ffffffffffffffffffffffffffffffffffffffff021916908373ffffffffffffffffffffffffffffffffffffffff160217905550838573ffffffffffffffffffffffffffffffffffffffff168273ffffffffffffffffffffffffffffffffffffffff167fddf252ad1be2c89b69c2b068fc378daa952ba7f163c4a11628f55a4df523b3ef60405160405180910390a4809150509392505050565b600073ffffffffffffffffffffffffffffffffffffffff168273ffffffffffffffffffffffffffffffffffffffff1603610d4257816040517f5b08ba18000000000000000000000000000000000000000000000000000000008152600401610d399190611a3d565b60405180910390fd5b80600560008573ffffffffffffffffffffffffffffffffffffffff1673ffffffffffffffffffffffffffffffffffffffff16815260200190815260200160002060008473ffffffffffffffffffffffffffffffffffffffff1673ffffffffffffffffffffffffffffffffffffffff16815260200190815260200160002060006101000a81548160ff0219169083151502179055508173ffffffffffffffffffffffffffffffffffffffff168373ffffffffffffffffffffffffffffffffffffffff167f17307eab39ab6107e8899845ad3d59bd9653f200f220920489ca2b5937696c3183604051610e3391906118cc565b60405180910390a3505050565b60008373ffffffffffffffffffffffffffffffffffffffff163b1115610ff1578273ffffffffffffffffffffffffffffffffffffffff1663150b7a02610e84610a9d565b8685856040518563ffffffff1660e01b8152600401610ea69493929190612092565b6020604051808303816000875af1925050508015610ee257506040513d601f19601f82011682018060405250810190610edf91906120f3565b60015b610f66573d8060008114610f12576040519150601f19603f3d011682016040523d82523d6000602084013e610f17565b606091505b506000815103610f5e57836040517f64a0ae92000000000000000000000000000000000000000000000000000000008152600401610f559190611a3d565b60405180910390fd5b805181602001fd5b63150b7a0260e01b7bffffffffffffffffffffffffffffffffffffffffffffffffffffffff1916817bffffffffffffffffffffffffffffffffffffffffffffffffffffffff191614610fef57836040517f64a0ae92000000000000000000000000000000000000000000000000000000008152600401610fe69190611a3d565b60405180910390fd5b505b50505050565b606060405180602001604052806000815250905090565b6060611019826109d8565b506000611024610ff7565b90506000815111611044576040518060200160405280600081525061106f565b8061104e84611421565b60405160200161105f929190611fa2565b6040516020818303038152906040525b915050919050565b6110918282604051806020016040528060008152506114ef565b5050565b806006600084815260200190815260200160002090816110b591906122cc565b507ff8e1a15aba9398e019f0b49df1a4fde98ee17ae345cb5f6b5e2c27f5033e8ce7826040516110e59190611b53565b60405180910390a15050565b60007f01ffc9a7000000000000000000000000000000000000000000000000000000007bffffffffffffffffffffffffffffffffffffffffffffffffffffffff1916827bffffffffffffffffffffffffffffffffffffffffffffffffffffffff1916149050919050565b60006002600083815260200190815260200160002060009054906101000a900473ffffffffffffffffffffffffffffffffffffffff169050919050565b80806111d15750600073ffffffffffffffffffffffffffffffffffffffff168273ffffffffffffffffffffffffffffffffffffffff1614155b156113055760006111e1846109d8565b9050600073ffffffffffffffffffffffffffffffffffffffff168373ffffffffffffffffffffffffffffffffffffffff161415801561124c57508273ffffffffffffffffffffffffffffffffffffffff168173ffffffffffffffffffffffffffffffffffffffff1614155b801561125f575061125d8184610862565b155b156112a157826040517fa9fbf51f0000000000000000000000000000000000000000000000000000000081526004016112989190611a3d565b60405180910390fd5b811561130357838573ffffffffffffffffffffffffffffffffffffffff168273ffffffffffffffffffffffffffffffffffffffff167f8c5be1e5ebec7d5bd14f71427d1e84f3dd0314c0f7b2291e5b200ac8c7c3b92560405160405180910390a45b505b836004600085815260200190815260200160002060006101000a81548173ffffffffffffffffffffffffffffffffffffffff021916908373ffffffffffffffffffffffffffffffffffffffff16021790555050505050565b61136883838361150b565b61141c57600073ffffffffffffffffffffffffffffffffffffffff168373ffffffffffffffffffffffffffffffffffffffff16036113dd57806040517f7e2732890000000000000000000000000000000000000000000000000000000081526004016113d49190611b53565b60405180910390fd5b81816040517f177e802f00000000000000000000000000000000000000000000000000000000815260040161141392919061239e565b60405180910390fd5b505050565b606060006001611430846115cc565b01905060008167ffffffffffffffff81111561144f5761144e611be4565b5b6040519080825280601f01601f1916602001820160405280156114815781602001600182028036833780820191505090505b509050600082602001820190505b6001156114e4578080600190039150507f3031323334353637383961626364656600000000000000000000000000000000600a86061a8153600a85816114d8576114d76123c7565b5b0494506000850361148f575b819350505050919050565b6114f9838361171f565b6115066000848484610e40565b505050565b60008073ffffffffffffffffffffffffffffffffffffffff168373ffffffffffffffffffffffffffffffffffffffff16141580156115c357508273ffffffffffffffffffffffffffffffffffffffff168473ffffffffffffffffffffffffffffffffffffffff16148061158457506115838484610862565b5b806115c257508273ffffffffffffffffffffffffffffffffffffffff166115aa83610a60565b73ffffffffffffffffffffffffffffffffffffffff16145b5b90509392505050565b600080600090507a184f03e93ff9f4daa797ed6e38ed64bf6a1f010000000000000000831061162a577a184f03e93ff9f4daa797ed6e38ed64bf6a1f01000000000000000083816116205761161f6123c7565b5b0492506040810190505b6d04ee2d6d415b85acef81000000008310611667576d04ee2d6d415b85acef8100000000838161165d5761165c6123c7565b5b0492506020810190505b662386f26fc10000831061169657662386f26fc10000838161168c5761168b6123c7565b5b0492506010810190505b6305f5e10083106116bf576305f5e10083816116b5576116b46123c7565b5b0492506008810190505b61271083106116e45761271083816116da576116d96123c7565b5b0492506004810190505b6064831061170757606483816116fd576116fc6123c7565b5b0492506002810190505b600a8310611716576001810190505b80915050919050565b600073ffffffffffffffffffffffffffffffffffffffff168273ffffffffffffffffffffffffffffffffffffffff16036117915760006040517f64a0ae920000000000000000000000000000000000000000000000000000000081526004016117889190611a3d565b60405180910390fd5b600061179f83836000610ab7565b9050600073ffffffffffffffffffffffffffffffffffffffff168173ffffffffffffffffffffffffffffffffffffffff16146118135760006040517f73c6ac6e00000000000000000000000000000000000000000000000000000000815260040161180a9190611a3d565b60405180910390fd5b505050565b6000604051905090565b600080fd5b600080fd5b60007fffffffff0000000000000000000000000000000000000000000000000000000082169050919050565b6118618161182c565b811461186c57600080fd5b50565b60008135905061187e81611858565b92915050565b60006020828403121561189a57611899611822565b5b60006118a88482850161186f565b91505092915050565b60008115159050919050565b6118c6816118b1565b82525050565b60006020820190506118e160008301846118bd565b92915050565b600081519050919050565b600082825260208201905092915050565b60005b83811015611921578082015181840152602081019050611906565b60008484015250505050565b6000601f19601f8301169050919050565b6000611949826118e7565b61195381856118f2565b9350611963818560208601611903565b61196c8161192d565b840191505092915050565b60006020820190508181036000830152611991818461193e565b905092915050565b6000819050919050565b6119ac81611999565b81146119b757600080fd5b50565b6000813590506119c9816119a3565b92915050565b6000602082840312156119e5576119e4611822565b5b60006119f3848285016119ba565b91505092915050565b600073ffffffffffffffffffffffffffffffffffffffff82169050919050565b6000611a27826119fc565b9050919050565b611a3781611a1c565b82525050565b6000602082019050611a526000830184611a2e565b92915050565b611a6181611a1c565b8114611a6c57600080fd5b50565b600081359050611a7e81611a58565b92915050565b60008060408385031215611a9b57611a9a611822565b5b6000611aa985828601611a6f565b9250506020611aba858286016119ba565b9150509250929050565b600080600060608486031215611add57611adc611822565b5b6000611aeb86828701611a6f565b9350506020611afc86828701611a6f565b9250506040611b0d868287016119ba565b9150509250925092565b600060208284031215611b2d57611b2c611822565b5b6000611b3b84828501611a6f565b91505092915050565b611b4d81611999565b82525050565b6000602082019050611b686000830184611b44565b92915050565b611b77816118b1565b8114611b8257600080fd5b50565b600081359050611b9481611b6e565b92915050565b60008060408385031215611bb157611bb0611822565b5b6000611bbf85828601611a6f565b9250506020611bd085828601611b85565b9150509250929050565b600080fd5b600080fd5b7f4e487b7100000000000000000000000000000000000000000000000000000000600052604160045260246000fd5b611c1c8261192d565b810181811067ffffffffffffffff82111715611c3b57611c3a611be4565b5b80604052505050565b6000611c4e611818565b9050611c5a8282611c13565b919050565b600067ffffffffffffffff821115611c7a57611c79611be4565b5b611c838261192d565b9050602081019050919050565b82818337600083830152505050565b6000611cb2611cad84611c5f565b611c44565b905082815260208101848484011115611cce57611ccd611bdf565b5b611cd9848285611c90565b509392505050565b600082601f830112611cf657611cf5611bda565b5b8135611d06848260208601611c9f565b91505092915050565b60008060008060808587031215611d2957611d28611822565b5b6000611d3787828801611a6f565b9450506020611d4887828801611a6f565b9350506040611d59878288016119ba565b925050606085013567ffffffffffffffff811115611d7a57611d79611827565b5b611d8687828801611ce1565b91505092959194509250565b600067ffffffffffffffff821115611dad57611dac611be4565b5b611db68261192d565b9050602081019050919050565b6000611dd6611dd184611d92565b611c44565b905082815260208101848484011115611df257611df1611bdf565b5b611dfd848285611c90565b509392505050565b600082601f830112611e1a57611e19611bda565b5b8135611e2a848260208601611dc3565b91505092915050565b60008060408385031215611e4a57611e49611822565b5b6000611e5885828601611a6f565b925050602083013567ffffffffffffffff811115611e7957611e78611827565b5b611e8585828601611e05565b9150509250929050565b60008060408385031215611ea657611ea5611822565b5b6000611eb485828601611a6f565b9250506020611ec585828601611a6f565b9150509250929050565b7f4e487b7100000000000000000000000000000000000000000000000000000000600052602260045260246000fd5b60006002820490506001821680611f1657607f821691505b602082108103611f2957611f28611ecf565b5b50919050565b6000606082019050611f446000830186611a2e565b611f516020830185611b44565b611f5e6040830184611a2e565b949350505050565b600081905092915050565b6000611f7c826118e7565b611f868185611f66565b9350611f96818560208601611903565b80840191505092915050565b6000611fae8285611f71565b9150611fba8284611f71565b91508190509392505050565b7f4e487b7100000000000000000000000000000000000000000000000000000000600052601160045260246000fd5b600061200082611999565b91507fffffffffffffffffffffffffffffffffffffffffffffffffffffffffffffffff820361203257612031611fc6565b5b600182019050919050565b600081519050919050565b600082825260208201905092915050565b60006120648261203d565b61206e8185612048565b935061207e818560208601611903565b6120878161192d565b840191505092915050565b60006080820190506120a76000830187611a2e565b6120b46020830186611a2e565b6120c16040830185611b44565b81810360608301526120d38184612059565b905095945050505050565b6000815190506120ed81611858565b92915050565b60006020828403121561210957612108611822565b5b6000612117848285016120de565b91505092915050565b60008190508160005260206000209050919050565b60006020601f8301049050919050565b600082821b905092915050565b6000600883026121827fffffffffffffffffffffffffffffffffffffffffffffffffffffffffffffffff82612145565b61218c8683612145565b95508019841693508086168417925050509392505050565b6000819050919050565b60006121c96121c46121bf84611999565b6121a4565b611999565b9050919050565b6000819050919050565b6121e3836121ae565b6121f76121ef826121d0565b848454612152565b825550505050565b600090565b61220c6121ff565b6122178184846121da565b505050565b5b8181101561223b57612230600082612204565b60018101905061221d565b5050565b601f8211156122805761225181612120565b61225a84612135565b81016020851015612269578190505b61227d61227585612135565b83018261221c565b50505b505050565b600082821c905092915050565b60006122a360001984600802612285565b1980831691505092915050565b60006122bc8383612292565b9150826002028217905092915050565b6122d5826118e7565b67ffffffffffffffff8111156122ee576122ed611be4565b5b6122f88254611efe565b61230382828561223f565b600060209050601f8311600181146123365760008415612324578287015190505b61232e85826122b0565b865550612396565b601f19841661234486612120565b60005b8281101561236c57848901518255600182019150602085019450602081019050612347565b868310156123895784890151612385601f891682612292565b8355505b6001600288020188555050505b505050505050565b60006040820190506123b36000830185611a2e565b6123c06020830184611b44565b9392505050565b7f4e487b7100000000000000000000000000000000000000000000000000000000600052601260045260246000fdfea26469706673582212208d3bbeba7d208ab25c6d9038d9ae5263e9a49ea23777ff9df2d885bc5190fe0264736f6c63430008140033",
    "linkReferences": {},
    "deployedLinkReferences": {}
}