{
    "_format": "hh-sol-artifact-1",
    "contractName": "VehicleData",
    "sourceName": "contracts/VehicleData.sol",
    "abi": [
        {
            "inputs": [
                {
                    "internalType": "uint256",
                    "name": "id",
                    "type": "uint256"
                }
            ],
            "name": "buyVehicle",
            "outputs": [],
            "stateMutability": "payable",
            "type": "function"
        },
        {
            "inputs": [
                {
                    "internalType": "string",
                    "name": "_brand",
                    "type": "string"
                },
                {
                    "internalType": "string",
                    "name": "_model",
                    "type": "string"
                },
                {
                    "internalType": "uint256",
                    "name": "_price",
                    "type": "uint256"
                },
                {
                    "internalType": "uint256",
                    "name": "_id",
                    "type": "uint256"
                },
                {
                    "internalType": "enum VehicleData.SellerType",
                    "name": "_sellerType",
                    "type": "uint8"
                },
                {
                    "internalType": "string",
                    "name": "_imageLink",
                    "type": "string"
                }
            ],
            "name": "createVehicle",
            "outputs": [],
            "stateMutability": "nonpayable",
            "type": "function"
        },
        {
            "inputs": [],
            "name": "getAllVehicles",
            "outputs": [
                {
                    "components": [
                        {
                            "internalType": "uint256",
                            "name": "_id",
                            "type": "uint256"
                        },
                        {
                            "internalType": "string",
                            "name": "_brand",
                            "type": "string"
                        },
                        {
                            "internalType": "string",
                            "name": "_model",
                            "type": "string"
                        },
                        {
                            "internalType": "uint256",
                            "name": "_price",
                            "type": "uint256"
                        },
                        {
                            "internalType": "enum VehicleData.SellerType",
                            "name": "_sellerType",
                            "type": "uint8"
                        },
                        {
                            "internalType": "address",
                            "name": "_owner",
                            "type": "address"
                        },
                        {
                            "internalType": "string",
                            "name": "_imageLink",
                            "type": "string"
                        },
                        {
                            "internalType": "bool",
                            "name": "_listed",
                            "type": "bool"
                        }
                    ],
                    "internalType": "struct VehicleData.Vehicle[]",
                    "name": "",
                    "type": "tuple[]"
                }
            ],
            "stateMutability": "view",
            "type": "function"
        },
        {
            "inputs": [
                {
                    "internalType": "uint256",
                    "name": "_id",
                    "type": "uint256"
                }
            ],
            "name": "getVehicle",
            "outputs": [
                {
                    "components": [
                        {
                            "internalType": "uint256",
                            "name": "_id",
                            "type": "uint256"
                        },
                        {
                            "internalType": "string",
                            "name": "_brand",
                            "type": "string"
                        },
                        {
                            "internalType": "string",
                            "name": "_model",
                            "type": "string"
                        },
                        {
                            "internalType": "uint256",
                            "name": "_price",
                            "type": "uint256"
                        },
                        {
                            "internalType": "enum VehicleData.SellerType",
                            "name": "_sellerType",
                            "type": "uint8"
                        },
                        {
                            "internalType": "address",
                            "name": "_owner",
                            "type": "address"
                        },
                        {
                            "internalType": "string",
                            "name": "_imageLink",
                            "type": "string"
                        },
                        {
                            "internalType": "bool",
                            "name": "_listed",
                            "type": "bool"
                        }
                    ],
                    "internalType": "struct VehicleData.Vehicle",
                    "name": "",
                    "type": "tuple"
                }
            ],
            "stateMutability": "view",
            "type": "function"
        },
        {
            "inputs": [],
            "name": "totalVehicles",
            "outputs": [
                {
                    "internalType": "uint256",
                    "name": "",
                    "type": "uint256"
                }
            ],
            "stateMutability": "view",
            "type": "function"
        },
        {
            "inputs": [
                {
                    "internalType": "uint256",
                    "name": "_id",
                    "type": "uint256"
                },
                {
                    "internalType": "address",
                    "name": "_newOwner",
                    "type": "address"
                }
            ],
            "name": "transferOwnership",
            "outputs": [],
            "stateMutability": "nonpayable",
            "type": "function"
        },
        {
            "inputs": [],
            "name": "vecFT",
            "outputs": [
                {
                    "internalType": "contract VecFT",
                    "name": "",
                    "type": "address"
                }
            ],
            "stateMutability": "view",
            "type": "function"
        },
        {
            "inputs": [
                {
                    "internalType": "uint256",
                    "name": "",
                    "type": "uint256"
                }
            ],
            "name": "vehicles",
            "outputs": [
                {
                    "internalType": "uint256",
                    "name": "_id",
                    "type": "uint256"
                },
                {
                    "internalType": "string",
                    "name": "_brand",
                    "type": "string"
                },
                {
                    "internalType": "string",
                    "name": "_model",
                    "type": "string"
                },
                {
                    "internalType": "uint256",
                    "name": "_price",
                    "type": "uint256"
                },
                {
                    "internalType": "enum VehicleData.SellerType",
                    "name": "_sellerType",
                    "type": "uint8"
                },
                {
                    "internalType": "address",
                    "name": "_owner",
                    "type": "address"
                },
                {
                    "internalType": "string",
                    "name": "_imageLink",
                    "type": "string"
                },
                {
                    "internalType": "bool",
                    "name": "_listed",
                    "type": "bool"
                }
            ],
            "stateMutability": "view",
            "type": "function"
        }
    ],
    "bytecode": "0x6080604052731a9c1ee777baddbf0cd2978741a08983cdd7481b6000806101000a81548173ffffffffffffffffffffffffffffffffffffffff021916908373ffffffffffffffffffffffffffffffffffffffff160217905550600060035534801561006957600080fd5b50611bf2806100796000396000f3fe60806040526004361061007b5760003560e01c8063b61d52261161004e578063b61d52261461011b578063b8ba95fa14610144578063cb9d90d314610188578063df7ebb7b146101b35761007b565b806302152d021461008057806329507f73146100ab57806336ce0920146100d45780638512f189146100f0575b600080fd5b34801561008c57600080fd5b506100956101f0565b6040516100a29190610ee9565b60405180910390f35b3480156100b757600080fd5b506100d260048036038101906100cd9190610fa2565b6101f6565b005b6100ee60048036038101906100e99190610fe2565b61028e565b005b3480156100fc57600080fd5b50610105610399565b604051610112919061106e565b60405180910390f35b34801561012757600080fd5b50610142600480360381019061013d91906111f4565b6103bf565b005b34801561015057600080fd5b5061016b60048036038101906101669190610fe2565b610545565b60405161017f9897969594939291906113f5565b60405180910390f35b34801561019457600080fd5b5061019d61075f565b6040516101aa919061168e565b60405180910390f35b3480156101bf57600080fd5b506101da60048036038101906101d59190610fe2565b610a96565b6040516101e7919061176e565b60405180910390f35b60035481565b60005b600354811015610289578260026000838152602001908152602001600020600001540361027657816002600083815260200190815260200160002060040160016101000a81548173ffffffffffffffffffffffffffffffffffffffff021916908373ffffffffffffffffffffffffffffffffffffffff1602179055505b8080610281906117bf565b9150506101f9565b505050565b600061029982610a96565b905060008160a0015173ffffffffffffffffffffffffffffffffffffffff16346040516102c590611838565b60006040518083038185875af1925050503d8060008114610302576040519150601f19603f3d011682016040523d82523d6000602084013e610307565b606091505b505090508061034b576040517f08c379a000000000000000000000000000000000000000000000000000000000815260040161034290611899565b60405180910390fd5b338260a0019073ffffffffffffffffffffffffffffffffffffffff16908173ffffffffffffffffffffffffffffffffffffffff168152505060008260e0019015159081151581525050505050565b600160009054906101000a900473ffffffffffffffffffffffffffffffffffffffff1681565b6040518061010001604052808481526020018781526020018681526020018581526020018360028111156103f6576103f5611354565b5b81526020013373ffffffffffffffffffffffffffffffffffffffff16815260200182815260200160011515815250600260006003600081548092919061043b906117bf565b91905055815260200190815260200160002060008201518160000155602082015181600101908161046c9190611abb565b5060408201518160020190816104829190611abb565b506060820151816003015560808201518160040160006101000a81548160ff021916908360028111156104b8576104b7611354565b5b021790555060a08201518160040160016101000a81548173ffffffffffffffffffffffffffffffffffffffff021916908373ffffffffffffffffffffffffffffffffffffffff16021790555060c08201518160050190816105199190611abb565b5060e08201518160060160006101000a81548160ff021916908315150217905550905050505050505050565b600260205280600052604060002060009150905080600001549080600101805461056e906118e8565b80601f016020809104026020016040519081016040528092919081815260200182805461059a906118e8565b80156105e75780601f106105bc576101008083540402835291602001916105e7565b820191906000526020600020905b8154815290600101906020018083116105ca57829003601f168201915b5050505050908060020180546105fc906118e8565b80601f0160208091040260200160405190810160405280929190818152602001828054610628906118e8565b80156106755780601f1061064a57610100808354040283529160200191610675565b820191906000526020600020905b81548152906001019060200180831161065857829003601f168201915b5050505050908060030154908060040160009054906101000a900460ff16908060040160019054906101000a900473ffffffffffffffffffffffffffffffffffffffff16908060050180546106c9906118e8565b80601f01602080910402602001604051908101604052809291908181526020018280546106f5906118e8565b80156107425780601f1061071757610100808354040283529160200191610742565b820191906000526020600020905b81548152906001019060200180831161072557829003601f168201915b5050505050908060060160009054906101000a900460ff16905088565b6060600060035467ffffffffffffffff81111561077f5761077e6110a4565b5b6040519080825280602002602001820160405280156107b857816020015b6107a5610e61565b81526020019060019003908161079d5790505b50905060005b600354811015610a8e57600260008281526020019081526020016000206040518061010001604052908160008201548152602001600182018054610801906118e8565b80601f016020809104026020016040519081016040528092919081815260200182805461082d906118e8565b801561087a5780601f1061084f5761010080835404028352916020019161087a565b820191906000526020600020905b81548152906001019060200180831161085d57829003601f168201915b50505050508152602001600282018054610893906118e8565b80601f01602080910402602001604051908101604052809291908181526020018280546108bf906118e8565b801561090c5780601f106108e15761010080835404028352916020019161090c565b820191906000526020600020905b8154815290600101906020018083116108ef57829003601f168201915b50505050508152602001600382015481526020016004820160009054906101000a900460ff16600281111561094457610943611354565b5b600281111561095657610955611354565b5b81526020016004820160019054906101000a900473ffffffffffffffffffffffffffffffffffffffff1673ffffffffffffffffffffffffffffffffffffffff1673ffffffffffffffffffffffffffffffffffffffff1681526020016005820180546109c0906118e8565b80601f01602080910402602001604051908101604052809291908181526020018280546109ec906118e8565b8015610a395780601f10610a0e57610100808354040283529160200191610a39565b820191906000526020600020905b815481529060010190602001808311610a1c57829003601f168201915b505050505081526020016006820160009054906101000a900460ff161515151581525050828281518110610a7057610a6f611b8d565b5b60200260200101819052508080610a86906117bf565b9150506107be565b508091505090565b610a9e610e61565b60005b600354811015610d785782600260008381526020019081526020016000206000015403610d6557600260008281526020019081526020016000206040518061010001604052908160008201548152602001600182018054610b01906118e8565b80601f0160208091040260200160405190810160405280929190818152602001828054610b2d906118e8565b8015610b7a5780601f10610b4f57610100808354040283529160200191610b7a565b820191906000526020600020905b815481529060010190602001808311610b5d57829003601f168201915b50505050508152602001600282018054610b93906118e8565b80601f0160208091040260200160405190810160405280929190818152602001828054610bbf906118e8565b8015610c0c5780601f10610be157610100808354040283529160200191610c0c565b820191906000526020600020905b815481529060010190602001808311610bef57829003601f168201915b50505050508152602001600382015481526020016004820160009054906101000a900460ff166002811115610c4457610c43611354565b5b6002811115610c5657610c55611354565b5b81526020016004820160019054906101000a900473ffffffffffffffffffffffffffffffffffffffff1673ffffffffffffffffffffffffffffffffffffffff1673ffffffffffffffffffffffffffffffffffffffff168152602001600582018054610cc0906118e8565b80601f0160208091040260200160405190810160405280929190818152602001828054610cec906118e8565b8015610d395780601f10610d0e57610100808354040283529160200191610d39565b820191906000526020600020905b815481529060010190602001808311610d1c57829003601f168201915b505050505081526020016006820160009054906101000a900460ff161515151581525050915050610e5c565b8080610d70906117bf565b915050610aa1565b50604051806101000160405280600081526020016040518060400160405280600781526020017f756e6b6e6f776e0000000000000000000000000000000000000000000000000081525081526020016040518060400160405280600681526020017f756e6b6f776e0000000000000000000000000000000000000000000000000000815250815260200160008152602001600280811115610e1c57610e1b611354565b5b81526020013373ffffffffffffffffffffffffffffffffffffffff1681526020016040518060200160405280600081525081526020016000151581525090505b919050565b6040518061010001604052806000815260200160608152602001606081526020016000815260200160006002811115610e9d57610e9c611354565b5b8152602001600073ffffffffffffffffffffffffffffffffffffffff168152602001606081526020016000151581525090565b6000819050919050565b610ee381610ed0565b82525050565b6000602082019050610efe6000830184610eda565b92915050565b6000604051905090565b600080fd5b600080fd5b610f2181610ed0565b8114610f2c57600080fd5b50565b600081359050610f3e81610f18565b92915050565b600073ffffffffffffffffffffffffffffffffffffffff82169050919050565b6000610f6f82610f44565b9050919050565b610f7f81610f64565b8114610f8a57600080fd5b50565b600081359050610f9c81610f76565b92915050565b60008060408385031215610fb957610fb8610f0e565b5b6000610fc785828601610f2f565b9250506020610fd885828601610f8d565b9150509250929050565b600060208284031215610ff857610ff7610f0e565b5b600061100684828501610f2f565b91505092915050565b6000819050919050565b600061103461102f61102a84610f44565b61100f565b610f44565b9050919050565b600061104682611019565b9050919050565b60006110588261103b565b9050919050565b6110688161104d565b82525050565b6000602082019050611083600083018461105f565b92915050565b600080fd5b600080fd5b6000601f19601f8301169050919050565b7f4e487b7100000000000000000000000000000000000000000000000000000000600052604160045260246000fd5b6110dc82611093565b810181811067ffffffffffffffff821117156110fb576110fa6110a4565b5b80604052505050565b600061110e610f04565b905061111a82826110d3565b919050565b600067ffffffffffffffff82111561113a576111396110a4565b5b61114382611093565b9050602081019050919050565b82818337600083830152505050565b600061117261116d8461111f565b611104565b90508281526020810184848401111561118e5761118d61108e565b5b611199848285611150565b509392505050565b600082601f8301126111b6576111b5611089565b5b81356111c684826020860161115f565b91505092915050565b600381106111dc57600080fd5b50565b6000813590506111ee816111cf565b92915050565b60008060008060008060c0878903121561121157611210610f0e565b5b600087013567ffffffffffffffff81111561122f5761122e610f13565b5b61123b89828a016111a1565b965050602087013567ffffffffffffffff81111561125c5761125b610f13565b5b61126889828a016111a1565b955050604061127989828a01610f2f565b945050606061128a89828a01610f2f565b935050608061129b89828a016111df565b92505060a087013567ffffffffffffffff8111156112bc576112bb610f13565b5b6112c889828a016111a1565b9150509295509295509295565b600081519050919050565b600082825260208201905092915050565b60005b8381101561130f5780820151818401526020810190506112f4565b60008484015250505050565b6000611326826112d5565b61133081856112e0565b93506113408185602086016112f1565b61134981611093565b840191505092915050565b7f4e487b7100000000000000000000000000000000000000000000000000000000600052602160045260246000fd5b6003811061139457611393611354565b5b50565b60008190506113a582611383565b919050565b60006113b582611397565b9050919050565b6113c5816113aa565b82525050565b6113d481610f64565b82525050565b60008115159050919050565b6113ef816113da565b82525050565b60006101008201905061140b600083018b610eda565b818103602083015261141d818a61131b565b90508181036040830152611431818961131b565b90506114406060830188610eda565b61144d60808301876113bc565b61145a60a08301866113cb565b81810360c083015261146c818561131b565b905061147b60e08301846113e6565b9998505050505050505050565b600081519050919050565b600082825260208201905092915050565b6000819050602082019050919050565b6114bd81610ed0565b82525050565b600082825260208201905092915050565b60006114df826112d5565b6114e981856114c3565b93506114f98185602086016112f1565b61150281611093565b840191505092915050565b611516816113aa565b82525050565b61152581610f64565b82525050565b611534816113da565b82525050565b60006101008301600083015161155360008601826114b4565b506020830151848203602086015261156b82826114d4565b9150506040830151848203604086015261158582826114d4565b915050606083015161159a60608601826114b4565b5060808301516115ad608086018261150d565b5060a08301516115c060a086018261151c565b5060c083015184820360c08601526115d882826114d4565b91505060e08301516115ed60e086018261152b565b508091505092915050565b6000611604838361153a565b905092915050565b6000602082019050919050565b600061162482611488565b61162e8185611493565b935083602082028501611640856114a4565b8060005b8581101561167c578484038952815161165d85826115f8565b94506116688361160c565b925060208a01995050600181019050611644565b50829750879550505050505092915050565b600060208201905081810360008301526116a88184611619565b905092915050565b6000610100830160008301516116c960008601826114b4565b50602083015184820360208601526116e182826114d4565b915050604083015184820360408601526116fb82826114d4565b915050606083015161171060608601826114b4565b506080830151611723608086018261150d565b5060a083015161173660a086018261151c565b5060c083015184820360c086015261174e82826114d4565b91505060e083015161176360e086018261152b565b508091505092915050565b6000602082019050818103600083015261178881846116b0565b905092915050565b7f4e487b7100000000000000000000000000000000000000000000000000000000600052601160045260246000fd5b60006117ca82610ed0565b91507fffffffffffffffffffffffffffffffffffffffffffffffffffffffffffffffff82036117fc576117fb611790565b5b600182019050919050565b600081905092915050565b50565b6000611822600083611807565b915061182d82611812565b600082019050919050565b600061184382611815565b9150819050919050565b7f4661696c656420746f2073656e64204574686572000000000000000000000000600082015250565b60006118836014836112e0565b915061188e8261184d565b602082019050919050565b600060208201905081810360008301526118b281611876565b9050919050565b7f4e487b7100000000000000000000000000000000000000000000000000000000600052602260045260246000fd5b6000600282049050600182168061190057607f821691505b602082108103611913576119126118b9565b5b50919050565b60008190508160005260206000209050919050565b60006020601f8301049050919050565b600082821b905092915050565b60006008830261197b7fffffffffffffffffffffffffffffffffffffffffffffffffffffffffffffffff8261193e565b611985868361193e565b95508019841693508086168417925050509392505050565b60006119b86119b36119ae84610ed0565b61100f565b610ed0565b9050919050565b6000819050919050565b6119d28361199d565b6119e66119de826119bf565b84845461194b565b825550505050565b600090565b6119fb6119ee565b611a068184846119c9565b505050565b5b81811015611a2a57611a1f6000826119f3565b600181019050611a0c565b5050565b601f821115611a6f57611a4081611919565b611a498461192e565b81016020851015611a58578190505b611a6c611a648561192e565b830182611a0b565b50505b505050565b600082821c905092915050565b6000611a9260001984600802611a74565b1980831691505092915050565b6000611aab8383611a81565b9150826002028217905092915050565b611ac4826112d5565b67ffffffffffffffff811115611add57611adc6110a4565b5b611ae782546118e8565b611af2828285611a2e565b600060209050601f831160018114611b255760008415611b13578287015190505b611b1d8582611a9f565b865550611b85565b601f198416611b3386611919565b60005b82811015611b5b57848901518255600182019150602085019450602081019050611b36565b86831015611b785784890151611b74601f891682611a81565b8355505b6001600288020188555050505b505050505050565b7f4e487b7100000000000000000000000000000000000000000000000000000000600052603260045260246000fdfea264697066735822122062f653211cdac32f71186818b7415bb6eaf03eb874e0b5c39646fef7c9dfb90864736f6c63430008140033",
    "linkReferences": {},
    "deployedLinkReferences": {}
}